{
  "_format": "hh-sol-artifact-1",
  "contractName": "RouteRecord",
  "sourceName": "contracts/RouteRecord.sol",
  "abi": [
    {
      "inputs": [],
      "stateMutability": "nonpayable",
      "type": "constructor"
    },
    {
      "inputs": [
        {
          "internalType": "address",
          "name": "owner",
          "type": "address"
        }
      ],
      "name": "OwnableInvalidOwner",
      "type": "error"
    },
    {
      "inputs": [
        {
          "internalType": "address",
          "name": "account",
          "type": "address"
        }
      ],
      "name": "OwnableUnauthorizedAccount",
      "type": "error"
    },
    {
      "anonymous": false,
      "inputs": [
        {
          "indexed": true,
          "internalType": "address",
          "name": "previousOwner",
          "type": "address"
        },
        {
          "indexed": true,
          "internalType": "address",
          "name": "newOwner",
          "type": "address"
        }
      ],
      "name": "OwnershipTransferred",
      "type": "event"
    },
    {
      "anonymous": false,
      "inputs": [
        {
          "indexed": true,
          "internalType": "uint256",
          "name": "id",
          "type": "uint256"
        },
        {
          "indexed": true,
          "internalType": "address",
          "name": "user",
          "type": "address"
        },
        {
          "indexed": false,
          "internalType": "string",
          "name": "origin",
          "type": "string"
        },
        {
          "indexed": false,
          "internalType": "string",
          "name": "destination",
          "type": "string"
        },
        {
          "indexed": false,
          "internalType": "string",
          "name": "distance",
          "type": "string"
        },
        {
          "indexed": false,
          "internalType": "uint256",
          "name": "timestamp",
          "type": "uint256"
        }
      ],
      "name": "RouteRecorded",
      "type": "event"
    },
    {
      "anonymous": false,
      "inputs": [
        {
          "indexed": true,
          "internalType": "uint256",
          "name": "id",
          "type": "uint256"
        },
        {
          "indexed": false,
          "internalType": "bool",
          "name": "verified",
          "type": "bool"
        }
      ],
      "name": "RouteVerified",
      "type": "event"
    },
    {
      "inputs": [
        {
          "internalType": "uint256",
          "name": "routeId",
          "type": "uint256"
        }
      ],
      "name": "getRoute",
      "outputs": [
        {
          "components": [
            {
              "internalType": "uint256",
              "name": "id",
              "type": "uint256"
            },
            {
              "internalType": "address",
              "name": "user",
              "type": "address"
            },
            {
              "internalType": "string",
              "name": "origin",
              "type": "string"
            },
            {
              "internalType": "string",
              "name": "destination",
              "type": "string"
            },
            {
              "internalType": "string",
              "name": "distance",
              "type": "string"
            },
            {
              "internalType": "uint256",
              "name": "timestamp",
              "type": "uint256"
            },
            {
              "internalType": "bool",
              "name": "verified",
              "type": "bool"
            }
          ],
          "internalType": "struct RouteRecord.Route",
          "name": "",
          "type": "tuple"
        }
      ],
      "stateMutability": "view",
      "type": "function"
    },
    {
      "inputs": [
        {
          "internalType": "address",
          "name": "user",
          "type": "address"
        }
      ],
      "name": "getUserRoutes",
      "outputs": [
        {
          "internalType": "uint256[]",
          "name": "",
          "type": "uint256[]"
        }
      ],
      "stateMutability": "view",
      "type": "function"
    },
    {
      "inputs": [],
      "name": "owner",
      "outputs": [
        {
          "internalType": "address",
          "name": "",
          "type": "address"
        }
      ],
      "stateMutability": "view",
      "type": "function"
    },
    {
      "inputs": [
        {
          "internalType": "string",
          "name": "origin",
          "type": "string"
        },
        {
          "internalType": "string",
          "name": "destination",
          "type": "string"
        },
        {
          "internalType": "string",
          "name": "distance",
          "type": "string"
        },
        {
          "internalType": "uint256",
          "name": "timestamp",
          "type": "uint256"
        }
      ],
      "name": "recordRoute",
      "outputs": [
        {
          "internalType": "uint256",
          "name": "",
          "type": "uint256"
        }
      ],
      "stateMutability": "nonpayable",
      "type": "function"
    },
    {
      "inputs": [],
      "name": "renounceOwnership",
      "outputs": [],
      "stateMutability": "nonpayable",
      "type": "function"
    },
    {
      "inputs": [
        {
          "internalType": "uint256",
          "name": "",
          "type": "uint256"
        }
      ],
      "name": "routes",
      "outputs": [
        {
          "internalType": "uint256",
          "name": "id",
          "type": "uint256"
        },
        {
          "internalType": "address",
          "name": "user",
          "type": "address"
        },
        {
          "internalType": "string",
          "name": "origin",
          "type": "string"
        },
        {
          "internalType": "string",
          "name": "destination",
          "type": "string"
        },
        {
          "internalType": "string",
          "name": "distance",
          "type": "string"
        },
        {
          "internalType": "uint256",
          "name": "timestamp",
          "type": "uint256"
        },
        {
          "internalType": "bool",
          "name": "verified",
          "type": "bool"
        }
      ],
      "stateMutability": "view",
      "type": "function"
    },
    {
      "inputs": [
        {
          "internalType": "address",
          "name": "newOwner",
          "type": "address"
        }
      ],
      "name": "transferOwnership",
      "outputs": [],
      "stateMutability": "nonpayable",
      "type": "function"
    },
    {
      "inputs": [
        {
          "internalType": "address",
          "name": "",
          "type": "address"
        },
        {
          "internalType": "uint256",
          "name": "",
          "type": "uint256"
        }
      ],
      "name": "userRoutes",
      "outputs": [
        {
          "internalType": "uint256",
          "name": "",
          "type": "uint256"
        }
      ],
      "stateMutability": "view",
      "type": "function"
    },
    {
      "inputs": [
        {
          "internalType": "uint256",
          "name": "routeId",
          "type": "uint256"
        }
      ],
      "name": "verifyRoute",
      "outputs": [],
      "stateMutability": "nonpayable",
      "type": "function"
    }
  ],
  "bytecode": "0x608060405234801561001057600080fd5b50338061003757604051631e4fbdf760e01b81526000600482015260240160405180910390fd5b61004081610046565b50610096565b600080546001600160a01b038381166001600160a01b0319831681178455604051919092169283917f8be0079c531659141344cd1fd0a4f28419497f9722a3daafe3b4186f6b6457e09190a35050565b610ec8806100a56000396000f3fe608060405234801561001057600080fd5b50600436106100935760003560e01c80638395e25b116100665780638395e25b146101055780638da5cb5b14610118578063ae66749a14610133578063f2fde38b14610153578063fa66358a1461016657600080fd5b80631f5efb5714610098578063715018a6146100ad578063726f16d8146100b55780637a9c785e146100e4575b600080fd5b6100ab6100a6366004610995565b610186565b005b6100ab61023f565b6100c86100c3366004610995565b610253565b6040516100db97969594939291906109f4565b60405180910390f35b6100f76100f2366004610a7c565b610435565b6040519081526020016100db565b6100f7610113366004610b49565b610466565b6000546040516001600160a01b0390911681526020016100db565b610146610141366004610bd9565b6105c3565b6040516100db9190610bfb565b6100ab610161366004610bd9565b61062f565b610179610174366004610995565b61066d565b6040516100db9190610c3f565b61018e610918565b60008181526002602052604081205490036101e75760405162461bcd60e51b8152602060048201526014602482015273149bdd5d1948191bd95cc81b9bdd08195e1a5cdd60621b60448201526064015b60405180910390fd5b600081815260026020908152604091829020600601805460ff19166001908117909155915191825282917f460cad7c942198d84a5d44a064d16f77ac38d79db32c22a5349bae37b8640919910160405180910390a250565b610247610918565b6102516000610945565b565b600260208190526000918252604090912080546001820154928201805491936001600160a01b0316929161028690610cd7565b80601f01602080910402602001604051908101604052809291908181526020018280546102b290610cd7565b80156102ff5780601f106102d4576101008083540402835291602001916102ff565b820191906000526020600020905b8154815290600101906020018083116102e257829003601f168201915b50505050509080600301805461031490610cd7565b80601f016020809104026020016040519081016040528092919081815260200182805461034090610cd7565b801561038d5780601f106103625761010080835404028352916020019161038d565b820191906000526020600020905b81548152906001019060200180831161037057829003601f168201915b5050505050908060040180546103a290610cd7565b80601f01602080910402602001604051908101604052809291908181526020018280546103ce90610cd7565b801561041b5780601f106103f05761010080835404028352916020019161041b565b820191906000526020600020905b8154815290600101906020018083116103fe57829003601f168201915b50505050600583015460069093015491929160ff16905087565b6003602052816000526040600020818154811061045157600080fd5b90600052602060002001600091509150505481565b6000600180600082825461047a9190610d11565b9091555050600180546040805160e0810182528281523360208083019182528284018b8152606084018b9052608084018a905260a08401899052600060c085018190528681526002928390529490942083518155915195820180546001600160a01b0319166001600160a01b03909716969096179095559151929390928392918201906105079082610d87565b506060820151600382019061051c9082610d87565b50608082015160048201906105319082610d87565b5060a0820151600582015560c0909101516006909101805460ff1916911515919091179055336000818152600360209081526040808320805460018101825590845291909220018490555183907f72897b9b252f43e64b0fbbcba187f1ff36ee666425f5e74e2135a77c50067a05906105b1908b908b908b908b90610e47565b60405180910390a35095945050505050565b6001600160a01b03811660009081526003602090815260409182902080548351818402810184019094528084526060939283018282801561062357602002820191906000526020600020905b81548152602001906001019080831161060f575b50505050509050919050565b610637610918565b6001600160a01b03811661066157604051631e4fbdf760e01b8152600060048201526024016101de565b61066a81610945565b50565b6106b86040518060e001604052806000815260200160006001600160a01b03168152602001606081526020016060815260200160608152602001600081526020016000151581525090565b600082815260026020526040812054900361070c5760405162461bcd60e51b8152602060048201526014602482015273149bdd5d1948191bd95cc81b9bdd08195e1a5cdd60621b60448201526064016101de565b600082815260026020818152604092839020835160e0810185528154815260018201546001600160a01b0316928101929092529182018054919384019161075290610cd7565b80601f016020809104026020016040519081016040528092919081815260200182805461077e90610cd7565b80156107cb5780601f106107a0576101008083540402835291602001916107cb565b820191906000526020600020905b8154815290600101906020018083116107ae57829003601f168201915b505050505081526020016003820180546107e490610cd7565b80601f016020809104026020016040519081016040528092919081815260200182805461081090610cd7565b801561085d5780601f106108325761010080835404028352916020019161085d565b820191906000526020600020905b81548152906001019060200180831161084057829003601f168201915b5050505050815260200160048201805461087690610cd7565b80601f01602080910402602001604051908101604052809291908181526020018280546108a290610cd7565b80156108ef5780601f106108c4576101008083540402835291602001916108ef565b820191906000526020600020905b8154815290600101906020018083116108d257829003601f168201915b50505091835250506005820154602082015260069091015460ff16151560409091015292915050565b6000546001600160a01b031633146102515760405163118cdaa760e01b81523360048201526024016101de565b600080546001600160a01b038381166001600160a01b0319831681178455604051919092169283917f8be0079c531659141344cd1fd0a4f28419497f9722a3daafe3b4186f6b6457e09190a35050565b6000602082840312156109a757600080fd5b5035919050565b6000815180845260005b818110156109d4576020818501810151868301820152016109b8565b506000602082860101526020601f19601f83011685010191505092915050565b8781526001600160a01b038716602082015260e060408201819052600090610a1e908301886109ae565b8281036060840152610a3081886109ae565b90508281036080840152610a4481876109ae565b60a0840195909552505090151560c09091015295945050505050565b80356001600160a01b0381168114610a7757600080fd5b919050565b60008060408385031215610a8f57600080fd5b610a9883610a60565b946020939093013593505050565b634e487b7160e01b600052604160045260246000fd5b600082601f830112610acd57600080fd5b813567ffffffffffffffff80821115610ae857610ae8610aa6565b604051601f8301601f19908116603f01168101908282118183101715610b1057610b10610aa6565b81604052838152866020858801011115610b2957600080fd5b836020870160208301376000602085830101528094505050505092915050565b60008060008060808587031215610b5f57600080fd5b843567ffffffffffffffff80821115610b7757600080fd5b610b8388838901610abc565b95506020870135915080821115610b9957600080fd5b610ba588838901610abc565b94506040870135915080821115610bbb57600080fd5b50610bc887828801610abc565b949793965093946060013593505050565b600060208284031215610beb57600080fd5b610bf482610a60565b9392505050565b6020808252825182820181905260009190848201906040850190845b81811015610c3357835183529284019291840191600101610c17565b50909695505050505050565b602081528151602082015260018060a01b0360208301511660408201526000604083015160e06060840152610c786101008401826109ae565b90506060840151601f1980858403016080860152610c9683836109ae565b925060808601519150808584030160a086015250610cb482826109ae565b91505060a084015160c084015260c0840151151560e08401528091505092915050565b600181811c90821680610ceb57607f821691505b602082108103610d0b57634e487b7160e01b600052602260045260246000fd5b50919050565b80820180821115610d3257634e487b7160e01b600052601160045260246000fd5b92915050565b601f821115610d8257600081815260208120601f850160051c81016020861015610d5f5750805b601f850160051c820191505b81811015610d7e57828155600101610d6b565b5050505b505050565b815167ffffffffffffffff811115610da157610da1610aa6565b610db581610daf8454610cd7565b84610d38565b602080601f831160018114610dea5760008415610dd25750858301515b600019600386901b1c1916600185901b178555610d7e565b600085815260208120601f198616915b82811015610e1957888601518255948401946001909101908401610dfa565b5085821015610e375787850151600019600388901b60f8161c191681555b5050505050600190811b01905550565b608081526000610e5a60808301876109ae565b8281036020840152610e6c81876109ae565b90508281036040840152610e8081866109ae565b9150508260608301529594505050505056fea264697066735822122008a626bb2e82f85dcd590176464f7241c91f3b88e068cad53b103c0552cdbc0064736f6c63430008150033",
  "linkReferences": {},
  "deployedLinkReferences": {}
}